{
  "address": "0x9fE46736679d2D9a65F0992F2272dE9f3c7fa6e0",
  "abi": [
    {
      "inputs": [
        {
          "internalType": "address",
          "name": "_priceFeed",
          "type": "address"
        }
      ],
      "stateMutability": "nonpayable",
      "type": "constructor"
    },
    {
      "inputs": [],
      "name": "FundMe__NotOwner",
      "type": "error"
    },
    {
      "stateMutability": "payable",
      "type": "fallback"
    },
    {
      "inputs": [],
      "name": "MINIMUM_USD",
      "outputs": [
        {
          "internalType": "uint256",
          "name": "",
          "type": "uint256"
        }
      ],
      "stateMutability": "view",
      "type": "function"
    },
    {
      "inputs": [],
      "name": "cheaperWithdraw",
      "outputs": [],
      "stateMutability": "nonpayable",
      "type": "function"
    },
    {
      "inputs": [],
      "name": "fund",
      "outputs": [],
      "stateMutability": "payable",
      "type": "function"
    },
    {
      "inputs": [],
      "name": "i_owner",
      "outputs": [
        {
          "internalType": "address",
          "name": "",
          "type": "address"
        }
      ],
      "stateMutability": "view",
      "type": "function"
    },
    {
      "inputs": [
        {
          "internalType": "address",
          "name": "",
          "type": "address"
        }
      ],
      "name": "s_addressToAmountFunded",
      "outputs": [
        {
          "internalType": "uint256",
          "name": "",
          "type": "uint256"
        }
      ],
      "stateMutability": "view",
      "type": "function"
    },
    {
      "inputs": [
        {
          "internalType": "uint256",
          "name": "",
          "type": "uint256"
        }
      ],
      "name": "s_funders",
      "outputs": [
        {
          "internalType": "address",
          "name": "",
          "type": "address"
        }
      ],
      "stateMutability": "view",
      "type": "function"
    },
    {
      "inputs": [],
      "name": "s_priceFeed",
      "outputs": [
        {
          "internalType": "contract AggregatorV3Interface",
          "name": "",
          "type": "address"
        }
      ],
      "stateMutability": "view",
      "type": "function"
    },
    {
      "inputs": [],
      "name": "withdraw",
      "outputs": [],
      "stateMutability": "nonpayable",
      "type": "function"
    },
    {
      "stateMutability": "payable",
      "type": "receive"
    }
  ],
  "transactionHash": "0x8bf03db1e24fe9e6eeb354a92d515e475e80e244f91cca7a907164729af7e58e",
  "args": [
    "0x5FbDB2315678afecb367f032d93F642f64180aa3"
  ],
  "numDeployments": 2,
  "solcInputHash": "7f3624c97276a34aca7e016e512ceda6",
  "bytecode": "0x608060405234801561001057600080fd5b506040516111673803806111678339818101604052810190610032919061011d565b33600260006101000a81548173ffffffffffffffffffffffffffffffffffffffff021916908373ffffffffffffffffffffffffffffffffffffffff16021790555080600360006101000a81548173ffffffffffffffffffffffffffffffffffffffff021916908373ffffffffffffffffffffffffffffffffffffffff1602179055505061014a565b600080fd5b600073ffffffffffffffffffffffffffffffffffffffff82169050919050565b60006100ea826100bf565b9050919050565b6100fa816100df565b811461010557600080fd5b50565b600081519050610117816100f1565b92915050565b600060208284031215610133576101326100ba565b5b600061014184828501610108565b91505092915050565b61100e806101596000396000f3fe60806040526004361061007f5760003560e01c80636b69a5921161004e5780636b69a59214610154578063b60d42881461017f578063be2693f014610189578063dba6335f146101a05761008e565b80630ec3b027146100985780631bf6132d146100c35780633ccfd60b1461010057806354861af7146101175761008e565b3661008e5761008c6101cb565b005b6100966101cb565b005b3480156100a457600080fd5b506100ad610305565b6040516100ba9190610a84565b60405180910390f35b3480156100cf57600080fd5b506100ea60048036038101906100e59190610ae2565b61032b565b6040516100f79190610b28565b60405180910390f35b34801561010c57600080fd5b50610115610343565b005b34801561012357600080fd5b5061013e60048036038101906101399190610b6f565b61057f565b60405161014b9190610bab565b60405180910390f35b34801561016057600080fd5b506101696105be565b6040516101769190610b28565b60405180910390f35b6101876101cb565b005b34801561019557600080fd5b5061019e6105cb565b005b3480156101ac57600080fd5b506101b561086b565b6040516101c29190610bab565b60405180910390f35b6802b5e3af16b188000061020a600360009054906101000a900473ffffffffffffffffffffffffffffffffffffffff163461089190919063ffffffff16565b101561024b576040517f08c379a000000000000000000000000000000000000000000000000000000000815260040161024290610c23565b60405180910390fd5b346000803373ffffffffffffffffffffffffffffffffffffffff1673ffffffffffffffffffffffffffffffffffffffff16815260200190815260200160002060008282546102999190610c72565b925050819055506001339080600181540180825580915050600190039060005260206000200160009091909190916101000a81548173ffffffffffffffffffffffffffffffffffffffff021916908373ffffffffffffffffffffffffffffffffffffffff160217905550565b600360009054906101000a900473ffffffffffffffffffffffffffffffffffffffff1681565b60006020528060005260406000206000915090505481565b600260009054906101000a900473ffffffffffffffffffffffffffffffffffffffff1673ffffffffffffffffffffffffffffffffffffffff163373ffffffffffffffffffffffffffffffffffffffff16146103ca576040517f579610db00000000000000000000000000000000000000000000000000000000815260040160405180910390fd5b60005b60018054905081101561046f576000600182815481106103f0576103ef610ca6565b5b9060005260206000200160009054906101000a900473ffffffffffffffffffffffffffffffffffffffff16905060008060008373ffffffffffffffffffffffffffffffffffffffff1673ffffffffffffffffffffffffffffffffffffffff168152602001908152602001600020819055505080806001019150506103cd565b50600067ffffffffffffffff81111561048b5761048a610cd5565b5b6040519080825280602002602001820160405280156104b95781602001602082028036833780820191505090505b50600190805190602001906104cf92919061095e565b5060003373ffffffffffffffffffffffffffffffffffffffff16476040516104f690610d35565b60006040518083038185875af1925050503d8060008114610533576040519150601f19603f3d011682016040523d82523d6000602084013e610538565b606091505b505090508061057c576040517f08c379a000000000000000000000000000000000000000000000000000000000815260040161057390610d96565b60405180910390fd5b50565b6001818154811061058f57600080fd5b906000526020600020016000915054906101000a900473ffffffffffffffffffffffffffffffffffffffff1681565b6802b5e3af16b188000081565b600260009054906101000a900473ffffffffffffffffffffffffffffffffffffffff1673ffffffffffffffffffffffffffffffffffffffff163373ffffffffffffffffffffffffffffffffffffffff1614610652576040517f579610db00000000000000000000000000000000000000000000000000000000815260040160405180910390fd5b600060018054806020026020016040519081016040528092919081815260200182805480156106d657602002820191906000526020600020905b8160009054906101000a900473ffffffffffffffffffffffffffffffffffffffff1673ffffffffffffffffffffffffffffffffffffffff168152602001906001019080831161068c575b5050505050905060005b815181101561075a5760008282815181106106fe576106fd610ca6565b5b6020026020010151905060008060008373ffffffffffffffffffffffffffffffffffffffff1673ffffffffffffffffffffffffffffffffffffffff168152602001908152602001600020819055505080806001019150506106e0565b50600067ffffffffffffffff81111561077657610775610cd5565b5b6040519080825280602002602001820160405280156107a45781602001602082028036833780820191505090505b50600190805190602001906107ba92919061095e565b5060003373ffffffffffffffffffffffffffffffffffffffff16476040516107e190610d35565b60006040518083038185875af1925050503d806000811461081e576040519150601f19603f3d011682016040523d82523d6000602084013e610823565b606091505b5050905080610867576040517f08c379a000000000000000000000000000000000000000000000000000000000815260040161085e90610d96565b60405180910390fd5b5050565b600260009054906101000a900473ffffffffffffffffffffffffffffffffffffffff1681565b60008061089d836108cd565b90506000670de0b6b3a764000085836108b69190610db6565b6108c09190610e27565b9050809250505092915050565b6000808273ffffffffffffffffffffffffffffffffffffffff1663feaf968c6040518163ffffffff1660e01b815260040160a060405180830381865afa15801561091b573d6000803e3d6000fd5b505050506040513d601f19601f8201168201806040525081019061093f9190610ee5565b5050509150506402540be400816109569190610f60565b915050919050565b8280548282559060005260206000209081019282156109d7579160200282015b828111156109d65782518260006101000a81548173ffffffffffffffffffffffffffffffffffffffff021916908373ffffffffffffffffffffffffffffffffffffffff1602179055509160200191906001019061097e565b5b5090506109e491906109e8565b5090565b5b80821115610a015760008160009055506001016109e9565b5090565b600073ffffffffffffffffffffffffffffffffffffffff82169050919050565b6000819050919050565b6000610a4a610a45610a4084610a05565b610a25565b610a05565b9050919050565b6000610a5c82610a2f565b9050919050565b6000610a6e82610a51565b9050919050565b610a7e81610a63565b82525050565b6000602082019050610a996000830184610a75565b92915050565b600080fd5b6000610aaf82610a05565b9050919050565b610abf81610aa4565b8114610aca57600080fd5b50565b600081359050610adc81610ab6565b92915050565b600060208284031215610af857610af7610a9f565b5b6000610b0684828501610acd565b91505092915050565b6000819050919050565b610b2281610b0f565b82525050565b6000602082019050610b3d6000830184610b19565b92915050565b610b4c81610b0f565b8114610b5757600080fd5b50565b600081359050610b6981610b43565b92915050565b600060208284031215610b8557610b84610a9f565b5b6000610b9384828501610b5a565b91505092915050565b610ba581610aa4565b82525050565b6000602082019050610bc06000830184610b9c565b92915050565b600082825260208201905092915050565b7f596f75206e65656420746f207370656e64206d6f726520455448210000000000600082015250565b6000610c0d601b83610bc6565b9150610c1882610bd7565b602082019050919050565b60006020820190508181036000830152610c3c81610c00565b9050919050565b7f4e487b7100000000000000000000000000000000000000000000000000000000600052601160045260246000fd5b6000610c7d82610b0f565b9150610c8883610b0f565b9250828201905080821115610ca057610c9f610c43565b5b92915050565b7f4e487b7100000000000000000000000000000000000000000000000000000000600052603260045260246000fd5b7f4e487b7100000000000000000000000000000000000000000000000000000000600052604160045260246000fd5b600081905092915050565b50565b6000610d1f600083610d04565b9150610d2a82610d0f565b600082019050919050565b6000610d4082610d12565b9150819050919050565b7f43616c6c206661696c6564000000000000000000000000000000000000000000600082015250565b6000610d80600b83610bc6565b9150610d8b82610d4a565b602082019050919050565b60006020820190508181036000830152610daf81610d73565b9050919050565b6000610dc182610b0f565b9150610dcc83610b0f565b9250828202610dda81610b0f565b91508282048414831517610df157610df0610c43565b5b5092915050565b7f4e487b7100000000000000000000000000000000000000000000000000000000600052601260045260246000fd5b6000610e3282610b0f565b9150610e3d83610b0f565b925082610e4d57610e4c610df8565b5b828204905092915050565b600069ffffffffffffffffffff82169050919050565b610e7781610e58565b8114610e8257600080fd5b50565b600081519050610e9481610e6e565b92915050565b6000819050919050565b610ead81610e9a565b8114610eb857600080fd5b50565b600081519050610eca81610ea4565b92915050565b600081519050610edf81610b43565b92915050565b600080600080600060a08688031215610f0157610f00610a9f565b5b6000610f0f88828901610e85565b9550506020610f2088828901610ebb565b9450506040610f3188828901610ed0565b9350506060610f4288828901610ed0565b9250506080610f5388828901610e85565b9150509295509295909350565b6000610f6b82610e9a565b9150610f7683610e9a565b9250828202610f8481610e9a565b91507f80000000000000000000000000000000000000000000000000000000000000008414600084121615610fbc57610fbb610c43565b5b8282058414831517610fd157610fd0610c43565b5b509291505056fea26469706673582212204f941518ca1717ca1803270de6b35861b8e05ef68bda6b57146978c7846adefa64736f6c634300081c0033",
  "devdoc": {
    "kind": "dev",
    "methods": {},
    "version": 1
  },
  "userdoc": {
    "kind": "user",
    "methods": {},
    "version": 1
  },
  "storageLayout": {
    "storage": [
      {
        "astId": 59,
        "contract": "contracts/FundMe.sol:FundMe",
        "label": "s_addressToAmountFunded",
        "offset": 0,
        "slot": "0",
        "type": "t_mapping(t_address,t_uint256)"
      },
      {
        "astId": 62,
        "contract": "contracts/FundMe.sol:FundMe",
        "label": "s_funders",
        "offset": 0,
        "slot": "1",
        "type": "t_array(t_address)dyn_storage"
      },
      {
        "astId": 64,
        "contract": "contracts/FundMe.sol:FundMe",
        "label": "i_owner",
        "offset": 0,
        "slot": "2",
        "type": "t_address"
      },
      {
        "astId": 74,
        "contract": "contracts/FundMe.sol:FundMe",
        "label": "s_priceFeed",
        "offset": 0,
        "slot": "3",
        "type": "t_contract(AggregatorV3Interface)45"
      }
    ],
    "types": {
      "t_address": {
        "encoding": "inplace",
        "label": "address",
        "numberOfBytes": "20"
      },
      "t_array(t_address)dyn_storage": {
        "base": "t_address",
        "encoding": "dynamic_array",
        "label": "address[]",
        "numberOfBytes": "32"
      },
      "t_contract(AggregatorV3Interface)45": {
        "encoding": "inplace",
        "label": "contract AggregatorV3Interface",
        "numberOfBytes": "20"
      },
      "t_mapping(t_address,t_uint256)": {
        "encoding": "mapping",
        "key": "t_address",
        "label": "mapping(address => uint256)",
        "numberOfBytes": "32",
        "value": "t_uint256"
      },
      "t_uint256": {
        "encoding": "inplace",
        "label": "uint256",
        "numberOfBytes": "32"
      }
    }
  }
}